{
  "_format": "hh-sol-artifact-1",
  "contractName": "Twitter",
  "sourceName": "contracts/Twitter.sol",
  "abi": [
    {
      "inputs": [],
      "stateMutability": "nonpayable",
      "type": "constructor"
    },
    {
      "anonymous": false,
      "inputs": [
        {
          "indexed": false,
          "internalType": "string",
          "name": "body",
          "type": "string"
        },
        {
          "indexed": false,
          "internalType": "bytes32",
          "name": "hash",
          "type": "bytes32"
        },
        {
          "indexed": false,
          "internalType": "uint256",
          "name": "time",
          "type": "uint256"
        },
        {
          "indexed": false,
          "internalType": "address",
          "name": "timer",
          "type": "address"
        }
      ],
      "name": "Tweetting",
      "type": "event"
    },
    {
      "inputs": [
        {
          "internalType": "uint256",
          "name": "",
          "type": "uint256"
        }
      ],
      "name": "Tweets",
      "outputs": [
        {
          "internalType": "string",
          "name": "body",
          "type": "string"
        },
        {
          "internalType": "bytes32",
          "name": "hash",
          "type": "bytes32"
        },
        {
          "internalType": "uint256",
          "name": "time",
          "type": "uint256"
        },
        {
          "internalType": "address",
          "name": "tweeter",
          "type": "address"
        }
      ],
      "stateMutability": "view",
      "type": "function"
    },
    {
      "inputs": [
        {
          "internalType": "string",
          "name": "_body",
          "type": "string"
        }
      ],
      "name": "createTweet",
      "outputs": [
        {
          "internalType": "bool",
          "name": "",
          "type": "bool"
        }
      ],
      "stateMutability": "nonpayable",
      "type": "function"
    },
    {
      "inputs": [],
      "name": "getAllTweet",
      "outputs": [
        {
          "components": [
            {
              "internalType": "string",
              "name": "body",
              "type": "string"
            },
            {
              "internalType": "bytes32",
              "name": "hash",
              "type": "bytes32"
            },
            {
              "internalType": "uint256",
              "name": "time",
              "type": "uint256"
            },
            {
              "internalType": "address",
              "name": "tweeter",
              "type": "address"
            }
          ],
          "internalType": "struct Twitter.Tweet[]",
          "name": "",
          "type": "tuple[]"
        }
      ],
      "stateMutability": "view",
      "type": "function"
    },
    {
      "inputs": [
        {
          "internalType": "address",
          "name": "_senter",
          "type": "address"
        }
      ],
      "name": "getTweetByUser",
      "outputs": [
        {
          "components": [
            {
              "internalType": "string",
              "name": "body",
              "type": "string"
            },
            {
              "internalType": "bytes32",
              "name": "hash",
              "type": "bytes32"
            },
            {
              "internalType": "uint256",
              "name": "time",
              "type": "uint256"
            },
            {
              "internalType": "address",
              "name": "tweeter",
              "type": "address"
            }
          ],
          "internalType": "struct Twitter.Tweet[]",
          "name": "",
          "type": "tuple[]"
        }
      ],
      "stateMutability": "view",
      "type": "function"
    }
  ],
  "bytecode": "0x6080604052600060015534801561001557600080fd5b50611149806100256000396000f3fe608060405234801561001057600080fd5b506004361061004c5760003560e01c8063675e0fb7146100515780637c9cd2bc1461006f57806397443ce11461009f578063fc1c5eb9146100d2575b600080fd5b610059610102565b6040516100669190610b44565b60405180910390f35b61008960048036038101906100849190610caf565b61025d565b6040516100969190610d13565b60405180910390f35b6100b960048036038101906100b49190610d5a565b610421565b6040516100c99493929190610dfe565b60405180910390f35b6100ec60048036038101906100e79190610e76565b610509565b6040516100f99190610b44565b60405180910390f35b60606000805480602002602001604051908101604052809291908181526020016000905b82821015610254578382906000526020600020906004020160405180608001604052908160008201805461015990610ed2565b80601f016020809104026020016040519081016040528092919081815260200182805461018590610ed2565b80156101d25780601f106101a7576101008083540402835291602001916101d2565b820191906000526020600020905b8154815290600101906020018083116101b557829003601f168201915b5050505050815260200160018201548152602001600282015481526020016003820160009054906101000a900473ffffffffffffffffffffffffffffffffffffffff1673ffffffffffffffffffffffffffffffffffffffff1673ffffffffffffffffffffffffffffffffffffffff168152505081526020019060010190610126565b50505050905090565b600080429050600083338360405160200161027a93929190610fa9565b604051602081830303815290604052805190602001209050600154600260008381526020019081526020016000208190555060018060008282546102be9190611011565b925050819055506102cd61082f565b848160000181905250818160200181815250508281604001818152505033816060019073ffffffffffffffffffffffffffffffffffffffff16908173ffffffffffffffffffffffffffffffffffffffff16815250506000819080600181540180825580915050600190039060005260206000209060040201600090919091909150600082015181600001908051906020019061036a929190610870565b50602082015181600101556040820151816002015560608201518160030160006101000a81548173ffffffffffffffffffffffffffffffffffffffff021916908373ffffffffffffffffffffffffffffffffffffffff16021790555050507f31e6cfeb3aaf444949c34d5c45403eeae3584fd54b53464c77738d7fa7162284816000015182602001518360400151846060015160405161040d9493929190610dfe565b60405180910390a160019350505050919050565b6000818154811061043157600080fd5b906000526020600020906004020160009150905080600001805461045490610ed2565b80601f016020809104026020016040519081016040528092919081815260200182805461048090610ed2565b80156104cd5780601f106104a2576101008083540402835291602001916104cd565b820191906000526020600020905b8154815290600101906020018083116104b057829003601f168201915b5050505050908060010154908060020154908060030160009054906101000a900473ffffffffffffffffffffffffffffffffffffffff16905084565b6060600080600090505b60016000805490506105259190611067565b81116105c7578373ffffffffffffffffffffffffffffffffffffffff16600082815481106105565761055561109b565b5b906000526020600020906004020160030160009054906101000a900473ffffffffffffffffffffffffffffffffffffffff1673ffffffffffffffffffffffffffffffffffffffff1614156105b4576001826105b19190611011565b91505b80806105bf906110ca565b915050610513565b5060008167ffffffffffffffff8111156105e4576105e3610b84565b5b60405190808252806020026020018201604052801561061d57816020015b61060a61082f565b8152602001906001900390816106025790505b509050600080600090505b600160008054905061063a9190611067565b8111610823578573ffffffffffffffffffffffffffffffffffffffff166000828154811061066b5761066a61109b565b5b906000526020600020906004020160030160009054906101000a900473ffffffffffffffffffffffffffffffffffffffff1673ffffffffffffffffffffffffffffffffffffffff16141561081057600081815481106106cd576106cc61109b565b5b90600052602060002090600402016040518060800160405290816000820180546106f690610ed2565b80601f016020809104026020016040519081016040528092919081815260200182805461072290610ed2565b801561076f5780601f106107445761010080835404028352916020019161076f565b820191906000526020600020905b81548152906001019060200180831161075257829003601f168201915b5050505050815260200160018201548152602001600282015481526020016003820160009054906101000a900473ffffffffffffffffffffffffffffffffffffffff1673ffffffffffffffffffffffffffffffffffffffff1673ffffffffffffffffffffffffffffffffffffffff16815250508383815181106107f5576107f461109b565b5b602002602001018190525060018261080d9190611011565b91505b808061081b906110ca565b915050610628565b50819350505050919050565b6040518060800160405280606081526020016000801916815260200160008152602001600073ffffffffffffffffffffffffffffffffffffffff1681525090565b82805461087c90610ed2565b90600052602060002090601f01602090048101928261089e57600085556108e5565b82601f106108b757805160ff19168380011785556108e5565b828001600101855582156108e5579182015b828111156108e45782518255916020019190600101906108c9565b5b5090506108f291906108f6565b5090565b5b8082111561090f5760008160009055506001016108f7565b5090565b600081519050919050565b600082825260208201905092915050565b6000819050602082019050919050565b600081519050919050565b600082825260208201905092915050565b60005b8381101561097957808201518184015260208101905061095e565b83811115610988576000848401525b50505050565b6000601f19601f8301169050919050565b60006109aa8261093f565b6109b4818561094a565b93506109c481856020860161095b565b6109cd8161098e565b840191505092915050565b6000819050919050565b6109eb816109d8565b82525050565b6000819050919050565b610a04816109f1565b82525050565b600073ffffffffffffffffffffffffffffffffffffffff82169050919050565b6000610a3582610a0a565b9050919050565b610a4581610a2a565b82525050565b60006080830160008301518482036000860152610a68828261099f565b9150506020830151610a7d60208601826109e2565b506040830151610a9060408601826109fb565b506060830151610aa36060860182610a3c565b508091505092915050565b6000610aba8383610a4b565b905092915050565b6000602082019050919050565b6000610ada82610913565b610ae4818561091e565b935083602082028501610af68561092f565b8060005b85811015610b325784840389528151610b138582610aae565b9450610b1e83610ac2565b925060208a01995050600181019050610afa565b50829750879550505050505092915050565b60006020820190508181036000830152610b5e8184610acf565b905092915050565b6000604051905090565b600080fd5b600080fd5b600080fd5b600080fd5b7f4e487b7100000000000000000000000000000000000000000000000000000000600052604160045260246000fd5b610bbc8261098e565b810181811067ffffffffffffffff82111715610bdb57610bda610b84565b5b80604052505050565b6000610bee610b66565b9050610bfa8282610bb3565b919050565b600067ffffffffffffffff821115610c1a57610c19610b84565b5b610c238261098e565b9050602081019050919050565b82818337600083830152505050565b6000610c52610c4d84610bff565b610be4565b905082815260208101848484011115610c6e57610c6d610b7f565b5b610c79848285610c30565b509392505050565b600082601f830112610c9657610c95610b7a565b5b8135610ca6848260208601610c3f565b91505092915050565b600060208284031215610cc557610cc4610b70565b5b600082013567ffffffffffffffff811115610ce357610ce2610b75565b5b610cef84828501610c81565b91505092915050565b60008115159050919050565b610d0d81610cf8565b82525050565b6000602082019050610d286000830184610d04565b92915050565b610d37816109f1565b8114610d4257600080fd5b50565b600081359050610d5481610d2e565b92915050565b600060208284031215610d7057610d6f610b70565b5b6000610d7e84828501610d45565b91505092915050565b600082825260208201905092915050565b6000610da38261093f565b610dad8185610d87565b9350610dbd81856020860161095b565b610dc68161098e565b840191505092915050565b610dda816109d8565b82525050565b610de9816109f1565b82525050565b610df881610a2a565b82525050565b60006080820190508181036000830152610e188187610d98565b9050610e276020830186610dd1565b610e346040830185610de0565b610e416060830184610def565b95945050505050565b610e5381610a2a565b8114610e5e57600080fd5b50565b600081359050610e7081610e4a565b92915050565b600060208284031215610e8c57610e8b610b70565b5b6000610e9a84828501610e61565b91505092915050565b7f4e487b7100000000000000000000000000000000000000000000000000000000600052602260045260246000fd5b60006002820490506001821680610eea57607f821691505b60208210811415610efe57610efd610ea3565b5b50919050565b600081905092915050565b6000610f1a8261093f565b610f248185610f04565b9350610f3481856020860161095b565b80840191505092915050565b60008160601b9050919050565b6000610f5882610f40565b9050919050565b6000610f6a82610f4d565b9050919050565b610f82610f7d82610a2a565b610f5f565b82525050565b6000819050919050565b610fa3610f9e826109f1565b610f88565b82525050565b6000610fb58286610f0f565b9150610fc18285610f71565b601482019150610fd18284610f92565b602082019150819050949350505050565b7f4e487b7100000000000000000000000000000000000000000000000000000000600052601160045260246000fd5b600061101c826109f1565b9150611027836109f1565b9250827fffffffffffffffffffffffffffffffffffffffffffffffffffffffffffffffff0382111561105c5761105b610fe2565b5b828201905092915050565b6000611072826109f1565b915061107d836109f1565b9250828210156110905761108f610fe2565b5b828203905092915050565b7f4e487b7100000000000000000000000000000000000000000000000000000000600052603260045260246000fd5b60006110d5826109f1565b91507fffffffffffffffffffffffffffffffffffffffffffffffffffffffffffffffff82141561110857611107610fe2565b5b60018201905091905056fea2646970667358221220efab871e4ecddcae0bc5662999391ff1d8b3b865605bbb95e882815e90ad240764736f6c63430008090033",
  "linkReferences": {},
  "deployedLinkReferences": {}
}